:040000000DEF00F010
:04000800A2EF1BF058
:06001800FF001CEF1DF0CB
:103700000000010203040506070802400002005001
:103710000141542B4350494E3D3F00494E46494ECE
:1037200049545900696E66696E6974790052454161
:103730004459004E414E00696E66006E616E004154
:0337400054000032
:103744006100E8F301F56100ECF302F5A1A2ADEF2D
:103754001BF0AFEF1BF0C6EF1BF0B1A2B4EF1BF0F0
:10376400B6EF1BF0C6EF1BF002D8C4EF1BF0050048
:10377400FA6E0501F651FD6EF751FE6EF851FF6EBB
:10378400FA50120000EF1CF0A1A4CBEF1BF0CDEF18
:103794001BF0E3EF1BF0B1A4D2EF1BF0D4EF1BF04E
:1037A400E3EF1BF002D8E1EF1BF00500FA6E4F5077
:1037B400FD6E5050FE6E5150FF6EFA50120000EF35
:1037C4001CF0A1A0E8EF1BF0EAEF1BF000EF1CF0E7
:1037D400B1A0EFEF1BF0F1EF1BF000EF1CF002D8EB
:1037E400FEEF1BF00500FA6E4C50FD6E4D50FE6E60
:1037F4004E50FF6EFA50120000EF1CF0610008F406
:10380400FBF4610004F4FAF4110018C510F519C5AD
:1038140011F51AC512F51BC513F5230E146E050E0A
:10382400156E000E176E200E166EABEC1DF0000E1A
:10383400446E000E436E42EF1CF0230E4324D96EF7
:10384400050E4420DA6E43501C24216E44501D2082
:10385400226E610084F4F6F4610088F4F7F4000E3B
:10386400F86EDE500900F518D8B43BEF1CF03DEFBC
:103874001CF040EF1CF0000E52EF1CF0434A442AA7
:103884001E50435C4450800A206E1F50800A20580A
:10389400D8A04FEF1CF051EF1CF01FEF1CF0010EED
:1038A4001200000E0A6E000E096E000E086E71EF13
:1038B4001CF00201FCB361EF1CF063EF1CF05BEF42
:1038C4001CF06000BCFB0AF508500324D96E0950B3
:1038D4000420DA6E610028F4DFF4084A092A0A0E8B
:1038E4000A18D8B478EF1CF07AEF1CF089EF1CF0BA
:1038F4000550085C0950800A076E0650800A075874
:10390400D8A087EF1CF089EF1CF05BEF1CF01200CD
:10391400070E0001B113610EAD6FEFEC1DF0020E46
:10392400496E060E4A6EF1EC1CF0D69E000ECF6E68
:10393400000EBF6E000E0401086F000EC76E3F0E2E
:103944000601006F370E016F00C618F501C619F5A0
:10395400000E1B6E020E1A6E6BEC1DF0200EBF1AC9
:10396400210E4B6E760EE82EFED74B2EFCD700D0E0
:10397400A1EF1CF00DEF00F0000E0B6E000E0A6EAE
:10398400E1EF1CF00A500424086E0B500520096E68
:10399400610020F4F6F4610024F4F7F4000EF86EEC
:1039A400360EF76403D00800F55005D0F6C4E9F4E8
:1039B400F7C4EAF4EF50D1EC1DF00A4A0B2A065082
:1039C4000A5C0B50800A086E0750800A0858D8A079
:1039D400EEEF1CF0F0EF1CF0C4EF1CF012006100DD
:1039E40024F5D9F4610028F5DAF4000EDF6E20EE38
:1039F40001F04950D9264A50DA22000EDF6E90ECCD
:103A04001DF00009D8A409EF1DF00BEF1DF00DEF18
:103A14001DF01BEF1DF0610024F5D9F4610028F5B9
:103A2400DAF4010EDF6E49C518F54AC519F546ECFE
:103A34001DF01200D20EF66E3B0EF76E000EF86EFD
:103A440001EEEBF110EE0BF00900F5C4EEF4E550D5
:103A5400E150FAE101EE0DF20B0EEE6AE806FDE12B
:103A64000501F86BF76BF66B516A506A4F6A4E6A40
:103A74004D6A4C6A0401080E5D6F000E5E6F000E05
:103A84005F6F00018AEF1CF021EEEBF111EEE0F123
:103A94000A0EDBC4E3F4E806FCE2E00E106E050E49
:103AA400116E000E136E0B0E126E600E146E050E68
:103AB400156E000E176E800E166EABEC1DF020EE28
:103AC40002F01850D9261950DA22000EDF6E010ECA
:103AD400120018C510F519C511F51AC512F51BC544
:103AE40013F51C0E146E050E156E000E176E200EC7
:103AF400166EABEC1DF04F0E1C18D8A484EF1DF00D
:103B040086EF1DF08FEF1DF04B0E1D18D8A48DEF1E
:103B14001DF08FEF1DF08FEF1DF01200110E456E9A
:103B2400370E466E2D0E476E370E486E45C518F596
:103B340046C519F5000E1B6E020E1A6E47C51CF51C
:103B440048C51DF5000E1F6E020E1E6E07EC1CF01C
:103B5400120010C50CF511C50DF512C50EF513C5EF
:103B64000FF5C0EC1DF014C503F515C504F5000EE2
:103B7400066E020E056E53EC1CF012000CC504F523
:103B84000DC505F50EC506F50FC507F5BEEC1CF011
:103B94000A0ED1EC1DF00D0ED1EC1DF01200036ED7
:103BA4000201FCB9D8EF1DF0DAEF1DF0D2EF1DF0E1
:103BB40061000CF4EFF21200000E0201FB6F0B0E19
:103BC400FA6F2C0E146F300EF713F88F1200415455
:093BD4002B43474E53494E4600B5
:0C3BDE00DEEC1DF01200120012001200BC
:020000040030CA
:10000000DCEFF7DF9FFFFFFFFFFFFFFFFFFFFFFFBB
:03001000FFFFFFF0
:08001700FFFFFFFFFFFFFFFFE9
:00000001FF
