:040000000DEF00F010
:0400080093EF1BF067
:06001800FF000BEF1DF0DC
:103700000000010203040506070802400002005001
:103710000141542B4350494E3D3F005245414459CD
:0537200000415400000F
:103726006100E8F301F56100ECF302F5A1A29EEF5A
:103736001BF0A0EF1BF0B6EF1BF0B1A2A5EF1BF03C
:10374600A7EF1BF0B6EF1BF002D8B4EF1BF0050095
:10375600FA6E5550FD6E5650FE6E5750FF6EFA507B
:103766001200F0EF1BF0A1A4BBEF1BF0BDEF1BF0A6
:10377600D3EF1BF0B1A4C2EF1BF0C4EF1BF0D3EFE5
:103786001BF002D8D1EF1BF00500FA6E5B50FD6E00
:103796005C50FE6E5D50FF6EFA501200F0EF1BF0AB
:1037A600A1A0D8EF1BF0DAEF1BF0F0EF1BF0B1A0F1
:1037B600DFEF1BF0E1EF1BF0F0EF1BF002D8EEEFAE
:1037C6001BF00500FA6E5850FD6E5950FE6E5A50A9
:1037D600FF6EFA501200F0EF1BF0610008F4FBF4E4
:1037E600610004F4FAF4110018C510F519C511F5B5
:1037F6001AC512F51BC513F5230E146E050E156EAC
:10380600000E176E200E166E21EC1DF0000E446E93
:10381600000E436E32EF1CF0230E4324D96E050EC4
:103826004420DA6E43501C24216E44501D20226E23
:10383600610084F4F6F4610088F4F7F4000EF86E83
:10384600DE500900F518D8B42BEF1CF02DEF1CF054
:1038560030EF1CF0000E42EF1CF0434A442A1E5083
:10386600435C4450800A206E1F50800A2058D8A01E
:103876003FEF1CF041EF1CF00FEF1CF0010E1200A1
:10388600070E0001B113610EAD6F5FEC1DF04E0E19
:10389600496E050E4A6E76EC1CF0D69E000ECF6E73
:1038A600000EBF6E000E0401086F000EC76E210EDB
:1038B6004C6E370E4D6E4CC518F54DC519F5000EFC
:1038C6001B6E020E1A6ECBEC1CF0200EBF1A210ED8
:1038D6004B6E760EE82EFED74B2EFCD700D05AEF55
:1038E6001CF00DEF00F0610024F5D9F4610028F515
:1038F600DAF4000EDF6E20EE01F04950D9264A5068
:10390600DA22000EDF6EF0EC1CF00009D8A48EEF70
:103916001CF090EF1CF092EF1CF0A0EF1CF0610081
:1039260024F5D9F4610028F5DAF4010EDF6E49C5F5
:1039360003F54AC504F562EC1DF01200000E0B6E8D
:10394600000E0A6EBBEF1CF00A500424086E0B50E2
:103956000520096E610020F4F6F4610024F4F7F402
:10396600000EF86E0800F55047EC1DF00A4A0B2AC7
:1039760006500A5C0B50800A086E0750800A0858E9
:10398600D8A0C8EF1CF0CAEF1CF0A7EF1CF012007D
:1039960018C510F519C511F51AC512F51BC513F58D
:1039A6001C0E146E050E156E000E176E200E166E8A
:1039B60021EC1DF04F0E1C18D8A4E4EF1CF0E6EF26
:1039C6001CF0EFEF1CF04B0E1D18D8A4EDEF1CF009
:1039D600EFEF1CF0EFEF1CF01200110E456E370EE4
:1039E600466E1B0E476E370E486E45C518F546C522
:1039F60019F5000E1B6E020E1A6E47C51CF548C55A
:103A06001DF5000E1F6E020E1E6EF7EC1BF0120067
:103A160001EE60F1070EEE6AE806FDE101EE55F1F2
:103A2600090EEE6AE806FDE10401080E5D6F000E60
:103A36005E6F000E5F6F000143EF1CF010C50CF5C2
:103A460011C50DF512C50EF513C50FF536EC1DF0B3
:103A560014C503F515C504F5000E066E020E056EB7
:103A660064EC1DF012000CC504F50DC505F50EC578
:103A760006F50FC507F5A1EC1CF00A0E47EC1DF084
:103A86000D0E47EC1DF01200036E0201FCB94EEF5D
:103A96001DF050EF1DF048EF1DF061000CF4EFF241
:103AA6001200000E0201FB6F0B0EFA6F2C0E146F44
:103AB600300EF713F88F120054EC1DF01200000EB2
:0A3AC600120012001200120012009C
:020000040030CA
:10000000DCEFF7DF9FFFFFFFFFFFFFFFFFFFFFFFBB
:03001000FFFFFFF0
:08001700FFFFFFFFFFFFFFFFE9
:00000001FF
