:040000000DEF00F010
:04000800A0EF1BF05A
:06001800FF0067EF1CF081
:103700000000010203040506070802400002005001
:103710000141542B4350494E3D3F00494E46494ECE
:1037200049545900696E66696E6974790052454161
:103730004459004E414E00696E66006E616E000095
:10374000FAC401F5FBC402F5A1A2A9EF1BF0ABEF8F
:103750001BF0C1EF1BF0B1A2B0EF1BF0B2EF1BF0FA
:10376000C1EF1BF002D8BFEF1BF00500FA6E4A5004
:10377000FD6E4B50FE6E4C50FF6EFA501200FBEF88
:103780001BF0A1A4C6EF1BF0C8EF1BF0DEEF1BF08F
:10379000B1A4CDEF1BF0CFEF1BF0DEEF1BF002D892
:1037A000DCEF1BF00500FA6E5050FD6E5150FE6EBE
:1037B0005250FF6EFA501200FBEF1BF0A1A0E3EF96
:1037C0001BF0E5EF1BF0FBEF1BF0B1A0EAEF1BF0E5
:1037D000ECEF1BF0FBEF1BF002D8F9EF1BF005003C
:1037E000FA6E4D50FD6E4E50FE6E4F50FF6EFA5009
:1037F0001200FBEF1BF002C5FBF401C5FAF4110047
:10380000070E0001B113610EAD6FADEC1CF0C79A4D
:10381000D69E000ECF6E000EBF6E000E0401086F24
:10382000000EC76E21EE21F111EE0EF1120EDBC477
:10383000E3F4E806FCE20E0E046E050E056E000EC3
:10384000076E130E066E36EC1CF0070E0D6E580E4A
:103850000C6E5A0EE82EFED70C2EFCD70D2EFAD782
:10386000200EC71A1BEF1CF00DEF00F0000E0B6EC0
:10387000000E0A6E57EF1CF00A500424086E0B501D
:103880000520096E08C5F6F409C5F7F4000EF86EB8
:10389000360EF76403D00800F55005D0F6C4E9F4FD
:1038A000F7C4EAF4EF5096EC1CF00A4A0B2A0650D3
:1038B0000A5C0B50800A086E0750800A0858D8A08E
:1038C00064EF1CF066EF1CF03CEF1CF012000E0ED3
:1038D000F66E390EF76E000EF86E01EE21F110EE65
:1038E0001EF00900F5C4EEF4E550E150FAE101EEF6
:1038F0003FF1160EEE6AE806FDE10401080E5D6F69
:10390000000E5E6F000E5F6F000100EF1CF057614C
:10391000796F6F6F20686574207765726B740A0D1C
:103920000041542B43474E53494E4600036E02015B
:10393000FCB99DEF1CF09FEF1CF097EF1CF003C546
:10394000EFF21200000E0201FB6F0C0EFA6F2C0E4C
:10395000146F300EF713F88F1200A2EC1CF0120057
:063960001200120012002B
:020000040030CA
:10000000DCEFF7DF9FFFFFFFFFFFFFFFFFFFFFFFBB
:03001000FFFFFFF0
:08001700FFFFFFFFFFFFFFFFE9
:00000001FF
