:040000000DEF00F010
:040008002EEF20F0C7
:06001800FF004EEF22F094
:103700000000010203040506070802400002005001
:1037100001353566323031613964663730376331AF
:103720003264383031326261326231313163326455
:103730003300746F6B656E3D25732676616C75651D
:103740003D25640041542B4350494E3D3F00494EB6
:1037500046494E49545900696E66696E697479002C
:103760005245414459004E414E00696E66006E61FB
:103770006E00257500000FC5D9F410C5DAF4DFC45A
:10378000F6F4370EF76E000EF86E0800F550250AB5
:10379000D8A4CDEF1BF0CFEF1BF0FAEF1DF00FC553
:1037A000D9F410C5DAF4DF2A000E0701F06F000E1D
:1037B000EF6FEFC75CF5F169F2690FC5D9F410C579
:1037C000DAF4DF50186E18C5F6F4370EF76E000EF7
:1037D000F86E0800F550640AD8B4F1EF1BF0F3EF6F
:1037E0001BF003EF1CF018C5F6F4370EF76E000E51
:1037F000F86E0800F550690AD8A401EF1CF003EF39
:103800001CF09AEF1CF011C5D9F412C5DAF4DFC42C
:1038100013F5020EDE26DFC414F5000EDD2213C5FB
:10382000D9F414C5DAF4DEC419F5DDC41AF5182884
:103830000FC5D9F410C5DAF4DF6E200E1D6E1ABE66
:1038400024EF1CF027EF1CF0010E28EF1CF0000EF7
:10385000176E1D06BF0E1D24D96EDA6A070EDA2216
:1038600019C503F51AC504F5000E066E0A0E056E9D
:1038700053EC21F003C509F504C50AF5DCEC22F090
:103880000950300FDF6E19C503F51AC504F5000E97
:10389000066E0A0E056E91EC20F003C519F504C5FD
:1038A0001AF519501A10D8B458EF1CF05AEF1CF042
:1038B00062EF1CF01D50D8A460EF1CF062EF1CF00A
:1038C00029EF1CF01D50D8B468EF1CF06AEF1CF013
:1038D0008FEF1CF01750D8B470EF1CF072EF1CF093
:1038E0008FEF1CF01D06BF0E1D24D96EDA6A070E7D
:1038F000DA222D0EDF6E8FEF1CF0BF0E1D24D96E65
:10390000DA6A070EDA22DF50136E1350036E046A70
:103910000DC505F50EC506F5C9EC1FF01D2A200ED4
:103920001D18D8A496EF1CF098EF1CF07DEF1CF04A
:1039300010EF1EF018C5F6F4370EF76E000EF86E95
:103940000800F550750AD8A4A8EF1CF0AAEF1CF0E7
:1039500032EF1DF011C5D9F412C5DAF4DFC413F546
:10396000020EDE26DFC414F5000EDD2213C5D9F4E5
:1039700014C5DAF4DEC419F5DDC41AF518280FC52C
:10398000D9F410C5DAF4DF6E1AEF1DF0200E1D6EAB
:103990001D06BF0E1D24D96EDA6A070EDA2219C57C
:1039A00003F51AC504F5000E066E0A0E056E1CEC32
:1039B00022F00350300FDF6E19C503F51AC504F568
:1039C000000E066E0A0E056EABEC21F003C519F56C
:1039D00004C51AF519501A10D8B4F1EF1CF0F3EF22
:1039E0001CF00FEF1DF01D50D8A4F9EF1CF0FBEFF9
:1039F0001CF0C8EF1CF00FEF1DF0BF0E1D24D96E98
:103A0000DA6A070EDA22DF50136E1350036E046A6F
:103A10000DC505F50EC506F5C9EC1FF01D2A200ED3
:103A20001D18D8A416EF1DF018EF1DF0FDEF1CF0C7
:103A300010EF1EF018C5F6F4370EF76E000EF86E94
:103A40000800F550136E146A1450000AD8B42BEF16
:103A50001DF032EF1DF01350750AD8B4C6EF1CF0FC
:103A600032EF1DF0000E176E0FC5D9F410C5DAF451
:103A7000DFC4F6F4370EF76E000EF86E0800F5504E
:103A8000730AD8A446EF1DF048EF1DF051EF1DF06A
:103A90000FC5D9F410C5DAF4DF2A010E176E9DEFB9
:103AA0001DF00FC5D9F410C5DAF4DFC4F6F4370EF3
:103AB000F76E000EF86E0800F5506C0AD8A463EF9C
:103AC0001DF065EF1DF09DEF1DF00FC5D9F410C579
:103AD000DAF4DF50136E010E132613C5F6F4370E19
:103AE000F76E000EF86E0800F5506C0AD8A47BEF54
:103AF0001DF07DEF1DF09DEF1DF00FC5D9F410C531
:103B0000DAF4DF50136E020E132613C5F6F4370EE7
:103B1000F76E000EF86E0800F550730AD8A493EF04
:103B20001DF095EF1DF09DEF1DF00FC5D9F410C5E8
:103B3000DAF4030EDF264DEF1DF01750D8B4A3EFD3
:103B40001DF0A5EF1DF0F3EF1DF011C5D9F412C55E
:103B5000DAF4DFC413F5020EDE26DFC414F5000E1E
:103B6000DD2213C5D9F414C5DAF4DEC415F5DDC4BD
:103B700016F5D8EF1DF015C5F6F416C5F7F4000ECE
:103B8000F86E360EF76403D00800F55005D0F6C481
:103B9000E9F4F7C4EAF4EF50136E1350036E046AAD
:103BA0000DC505F50EC506F5C9EC1FF0154A162A18
:103BB00015C5F6F416C5F7F4000EF86E360EF76468
:103BC00003D00800F55005D0F6C4E9F4F7C4EAF4D0
:103BD000EF500009D8A4EFEF1DF0F1EF1DF0BBEF9F
:103BE0001DF010EF1EF00FC5D9F410C5DAF4DF2A6E
:103BF00010EF1EF00FC5D9F410C5DAF4DFC4F6F4E7
:103C0000370EF76E000EF86E0800F550036E046A6A
:103C10000DC505F50EC506F5C9EC1FF0F3EF1DF057
:103C2000120021EE00F311EE77F1330EDBC4E3F462
:103C3000E806FCE221EE91F311EEDBF10B0EDBC4A2
:103C4000E3F4E806FCE221EE55F311EEABF1120EBF
:103C5000DBC4E3F4E806FCE221EE78F311EECEF1EA
:103C60000C0EDBC4E3F4E806FCE221EE68F311EE8F
:103C7000BEF10F0EDBC4E3F4E806FCE221EE85F3AF
:103C800011EEE7F10B0EDBC4E3F4E806FCE2000EF4
:103C90000501F96F000EF86FD5EF1EF0F30E246EDC
:103CA000050E256E410E266EF8C503F5F9C504F51F
:103CB000000E066E060E056EF6EC22F003500501AE
:103CC0007125756F04507221766F020E7525D96EBD
:103CD000000E7621DA6EDEC427F5DDC428F59DECF2
:103CE00022F0DB0E106E050E116E000E136E0C0E20
:103CF000126E09EC23F0AB0E076E050E086E000E77
:103D00000A6E130E096EE5EC21F0770E076E050EB4
:103D1000086E000E0A6E340E096EE5EC21F0F30E0B
:103D2000106E050E116EF30E036E050E046EC1ECDF
:103D300022F0010E0324126E000E0420136E09EC13
:103D400023F0CE0E076E050E086E000E0A6E0D0EE5
:103D5000096EE5EC21F0F8C503F5F9C504F5000E90
:103D6000066E060E056EF6EC22F003500501712575
:103D7000396E045072213A6E57EC1FF0BE0E106E71
:103D8000050E116E000E136E100E126E09EC23F06C
:103D9000E70E106E050E116E000E136E0C0E126EF5
:103DA00009EC23F00501F84BF92B7351F85DF9513B
:103DB000800A756F7451800A7559D8A0E2EF1EF021
:103DC000E4EF1EF04EEF1EF01200000E0701F36F3D
:103DD000070E0001B113610EAD6F000E05016F6F8C
:103DE000080E706FAD0E716F070E726F000E746F5C
:103DF000030E736F11EC1EF031EC23F0000ECF6E4A
:103E0000000EBF6E000E0401086F000EC76E010E9B
:103E10000701F36F38EF1FF0D68E1A0E0701F56F0A
:103E20005E0EF46F6E0EE82EFED7F42FFCD7F52F42
:103E3000FAD70000020E0701F36F51EF1FF0D69E74
:103E4000030EF36F51EF1FF0000E05016F6F080EA8
:103E5000706FAD0E716F070E726F000E746F030EF0
:103E6000736F11EC1EF0010E0701F36F51EF1FF09D
:103E7000F351F46FF56BF551000AD8B442EF1FF01F
:103E800051EF1FF0F451010AD8B40CEF1FF0030AF0
:103E9000D8B41FEF1FF0010AD8B424EF1FF051EF80
:103EA0001FF0200EC71A38EF1FF00DEF00F021EEC3
:103EB00034F311EE3BF1200EDBC4E3F4E806FCE240
:103EC00021EEA8F311EE60F1040EDBC4E3F4E80682
:103ED000FCE2000E246E060E256E320E266E110ECA
:103EE000276E2750D8A4370E286E20EE04F03950E4
:103EF000D9263A50DA22DEC429F5DDC42AF59DEC34
:103F000022F0000E036E060E046EC1EC22F003C513
:103F10006DF504C56EF5650E246E050E256E720EE8
:103F2000266E6DC527F56EC528F59DEC22F0650E51
:103F3000076E050E086E650E036E050E046EC1EC6D
:103F400022F0010E0324096E000E04200A6EE5EC37
:103F500021F02C0E1AEC23F0600E106E050E116E7F
:103F6000000E136E050E126E09EC23F0000E106E9B
:103F7000060E116E000E036E060E046EC1EC22F0EA
:103F8000010E0324126E000E0420136E09EC23F0C0
:103F9000120005500610D8B4D0EF1FF0D2EF1FF07A
:103FA000DBEF1FF005500610D8A4D9EF1FF0DBEFB0
:103FB0001FF0E0EF1FF0035034EC23F02DEF20F062
:103FC00020EE0AF00550D9260650DA22DE50DE1027
:103FD000D8B4EDEF1FF0EFEF1FF00AEF20F020EE66
:103FE0000AF00550D9260650DA2210EE03F00550EB
:103FF000E1260650E222DE50E65CE650800A0B6EB7
:10400000DE50800A0B58D8B008EF20F00AEF20F0FD
:104010002DEF20F020EE03F00550D9260650DA22CD
:10402000DEC407F5DDC408F505C5D9F406C5DAF424
:10403000DEC409F5DDC40AF507500924D96E08501D
:104040000A20DA6E03C5DFF420EE03F00550D9260E
:104050000650DA22DE2A000EDD221200FAC401F533
:10406000FBC402F5A1A237EF20F039EF20F050EFAA
:1040700020F0B1A23EEF20F040EF20F050EF20F012
:1040800002D84EEF20F00500FA6E0701EA51FD6EEE
:10409000EB51FE6EEC51FF6EFA5012008CEF20F0E7
:1040A000A1A455EF20F057EF20F06EEF20F0B1A45F
:1040B0005CEF20F05EEF20F06EEF20F002D86CEFA6
:1040C00020F00500FA6E0501FD51FD6EFE51FE6EF9
:1040D000FF51FF6EFA5012008CEF20F0A1A073EF99
:1040E00020F075EF20F08CEF20F0B1A07AEF20F0F7
:1040F0007CEF20F08CEF20F002D88AEF20F0050052
:10410000FA6E0501FA51FD6EFB51FE6EFC51FF6E19
:10411000FA5012008CEF20F002C5FBF401C5FAF44E
:104120001100000E086E06BE9AEF20F098EF20F006
:10413000A0EF20F0056C061ED8B0062A010E086E0E
:1041400004BEA7EF20F0A5EF20F0ADEF20F0036C48
:10415000041ED8B0042A010E081A000E0A6E000EC2
:10416000096E05500610D8B4B8EF20F0BAEF20F071
:10417000E2EF20F0010E076EC2EF20F0D890053676
:104180000636072A06AEC7EF20F0C9EF20F0BEEFD3
:1041900020F0D89009360A360550035C06500458C2
:1041A000D8A0D5EF20F0D7EF20F0DCEF20F00550BD
:1041B000035E0650045A0980D89006320532072E55
:1041C000C9EF20F00850D8B4E8EF20F0EAEF20F073
:1041D000EEEF20F0096C0A1ED8B00A2A09C503F5D3
:1041E0000AC504F512006261736963616C6C792D14
:1041F000636C65616E2D616C706163612E6E6772B8
:104200006F6B2D667265652E6170702F76616C75AF
:10421000652F7570646174652F00353566323031F5
:104220006139646637303763313264383031326235
:10423000613262313131633264330041542B48546E
:104240005450504152413D2255524C222C00415471
:104250002B48545450414354494F4E3D3100415432
:104260002B48545450444154413D0041542B485430
:1042700054505445524D0041542B48545450494ECB
:1042800049540041542B43474E53494E4600393957
:10429000393900000007000800010008000300028F
:0542A00000090002000E
:1042A600000E086E04BE5CEF21F05AEF21F062EFBB
:1042B60021F0036C041ED8B0042A010E086E06BE57
:1042C60069EF21F067EF21F06DEF21F0056C061E16
:1042D600D8B0062A05500610D8B474EF21F076EF50
:1042E60021F09AEF21F0010E076E7EEF21F0D890B3
:1042F60005360636072A06AE83EF21F085EF21F054
:104306007AEF21F00550035C06500458D8A08EEFD2
:1043160021F090EF21F094EF21F00550035E065056
:10432600045AD89006320532072E85EF21F0085040
:10433600D8B4A0EF21F0A2EF21F0A6EF21F0036C94
:10434600041ED8B0042A03C503F504C504F51200FB
:10435600000E096E000E086E05500610D8B4B6EFB2
:1043660021F0B8EF21F0E0EF21F0010E076EC0EF6B
:1043760021F0D89005360636072A06AEC5EF21F09D
:10438600C7EF21F0BCEF21F0D8900836093605506A
:10439600035C06500458D8A0D3EF21F0D5EF21F0E6
:1043A600DAEF21F00550035E0650045A0880D890D3
:1043B60006320532072EC7EF21F008C503F509C5F9
:1043C60004F51200000E0F6E000E0E6E06EF22F0C0
:1043D6000E5007240B6E0F5008200C6E0BC5F6F41A
:1043E6000CC5F7F4000EF86E360EF76403D008001D
:1043F600F55005D0F6C4E9F4F7C4EAF4EF501AEC28
:1044060023F00E4A0F2AFF0E09240B6EFF0E0A2018
:104416000C6E0B500E5C0F50800A0D6E0C50800A0D
:104426000D58D8A019EF22F01BEF22F0EBEF21F088
:10443600120005500610D8B423EF22F025EF22F023
:1044460049EF22F0010E076E2DEF22F0D8900536C7
:104456000636072A06AE32EF22F034EF22F029EFB5
:1044660022F00550035C06500458D8A03DEF22F018
:104476003FEF22F043EF22F00550035E0650045A48
:10448600D89006320532072E34EF22F003C503F525
:1044960004C504F51200E60EF66E410EF76E000E28
:1044A600F86E01EE00F310EEBFF00900F5C4EEF46D
:1044B600E550E150FAE101EEBFF3350EEE6AE8068B
:1044C600FDE10501FF6BFE6BFD6BFC6BFB6BFA6B95
:1044D6005C6A0401080E5D6F000E5E6F000E5F6F72
:1044E6000001E5EF1EF020C523F588EF22F01EC57A
:1044F6000DF51FC50EF5230E0F6E050E106E21C5A8
:1045060011F522C512F5BBEC1BF023C5F6F4370EE8
:10451600F76E000EF86E0800F5500009D8A496EF65
:1045260022F098EF22F07AEF22F0000E1F6E000EB6
:104536001E6E1200270E2B6E050E2C6E24C52DF551
:1045460025C52EF5000E316E000E306E000E386E4B
:10455600000E376E2D0E1E6E050E1F6E26C520F53B
:104566002B0E216E050E226E76EC22F0305024249E
:10457600D96E31502520DA6EDF6A120003C505F5C3
:1045860004C506F5C9EF22F0034A042A03C5D9F487
:1045960004C5DAF4DF50D8A4D3EF22F0D5EF22F029
:1045A600C7EF22F00550035C036E06500458046EF4
:1045B60012000ABEE1EF22F0E3EF22F0E9EF22F06B
:1045C60009C509F50AC50AF5F5EF22F009C50BF587
:1045D6000AC50CF50B1E0C1E0B4A0C2A0BC509F559
:1045E6000CC50AF5120003500502F3C407F5F4C41E
:1045F60008F503500602F350082604500502F3504E
:10460600082607C503F508C504F5120010C507F509
:1046160011C508F512C509F513C50AF5E5EC21F033
:104626000D0E1AEC23F00A0E1AEC23F01200036E9C
:104636000201FCB921EF23F023EF23F01BEF23F057
:1046460003C5EFF21200000E0201FB6F0C0EFA6FAB
:104656002C0E146F300EF713F88F120026EC23F091
:0A46660012001200120012001200F0
:020000040030CA
:10000000DCEFF7DF9FFFFFFFFFFFFFFFFFFFFFFFBB
:03001000FFFFFFF0
:08001700FFFFFFFFFFFFFFFFE9
:00000001FF
