:040000000DEF00F010
:0400080089EF1BF071
:06001800FF0036EF1CF0B2
:103700000000010203040506070802400002005001
:103710000100FAC401F5FBC402F5A1A292EF1BF06F
:1037200094EF1BF0AAEF1BF0B1A299EF1BF09BEFF7
:103730001BF0AAEF1BF002D8A8EF1BF00500FA6EF1
:103740000F50FD6E1050FE6E1150FF6EFA501200B9
:10375000E4EF1BF0A1A4AFEF1BF0B1EF1BF0C7EF3C
:103760001BF0B1A4B6EF1BF0B8EF1BF0C7EF1BF0D6
:1037700002D8C5EF1BF00500FA6E1550FD6E16500D
:10378000FE6E1750FF6EFA501200E4EF1BF0A1A07E
:10379000CCEF1BF0CEEF1BF0E4EF1BF0B1A0D3EFAA
:1037A0001BF0D5EF1BF0E4EF1BF002D8E2EF1BF0AB
:1037B0000500FA6E1250FD6E1350FE6E1450FF6E2F
:1037C000FA501200E4EF1BF002C5FBF401C5FAF455
:1037D0001100070E0001B113610EAD6F5DEC1CF01E
:1037E000080E056E050E066E11EC1CF0D69E000E3E
:1037F000CF6E000EBF6E000E0401086F000EC76E84
:10380000410E46EC1CF0200EBF1A210E076E760EFC
:10381000E82EFED7072EFCD700D000EF1CF00DEFEE
:1038200000F005C5D9F406C5DAF4DF6A20EE01F030
:103830000550D9260650DA22DF6A62EC1CF0000936
:10384000D8A425EF1CF027EF1CF029EF1CF035EF72
:103850001CF005C5D9F406C5DAF4010EDF6E05C506
:1038600003F506C504F560EC1CF0120001EE0FF143
:10387000090EEE6AE806FDE10401080E5D6F000E18
:103880005E6F000E5F6F0001E9EF1BF0036E020137
:10389000FCB94DEF1CF04FEF1CF047EF1CF003C5D7
:1038A000EFF21200000E0201FB6F0B0EFA6F2C0EEE
:1038B000146F300EF713F88F120052EC1CF0120048
:0E38C000000E1200010E120012001200120083
:020000040030CA
:10000000DCEFF7DF9FFFFFFFFFFFFFFFFFFFFFFFBB
:03001000FFFFFFF0
:08001700FFFFFFFFFFFFFFFFE9
:00000001FF
